:100000000C94C2010C94F3010C94F3010C94F301D1
:100010000C94F3010C94F3010C94F3010C94F30190
:100020000C94F3010C94F3010C94F3010C94F30180
:100030000C94F3010C94F3010C94F3010C94F30170
:100040000C94F3010C94F3010C94F3010C94F30160
:100050000C94F3010C94F3010C94F3010C94DF263F
:100060000C94F3010C94F81D0C94CE1D0C94F30128
:100070000C94F3010C94F3010C94F3010C94F30130
:100080000C94F3010C94F3010C94F3010C94F30120
:100090000C94F3010C94F3010C94F3010C94ED18FF
:1000A0000C94F3010C94F3010C94F3010C94F30100
:1000B0000C94F3010C94F3010C94F3010C94F301F0
:1000C0000C94F3010C94F3010C94F3010C94A41D13
:1000D0000C947A1D0C94F3010C94F3010C94F3012D
:1000E0000C94F301CA02D102D802DF02E602ED024B
:1000F000F402FB02FC23FF23EE23F223F823362431
:10010000032407240D24112415241B241F24232435
:10011000362429242D2431240C9491160C94182F64
:100120000C9462170C9411240C94161C0C9401026C
:100130000C941C170C9429240C940E2F0C942D2431
:100140000C94FC230C94D22E0C94E2110C948B2F63
:100150000C94DD230C94151B0C94D8020C943124C0
:100160000C9415240C94D6230C94A8090C94AA0979
:100170000C94D1020C94E4110C9407240C940D02FD
:100180000C941F240C94ED020C94FB020C941B2481
:100190000C94A1160C94E4120C94F4020C946012CA
:1001A0000C94D2230C945D1B0C948E1B0C9488121F
:1001B0000C94F2230C9436240C9442140C94BD1627
:1001C0000C94EE230C9423240C9405120C94801BA5
:1001D0000C9403240C940E120C94B5160C94FC127F
:1001E0000C94ED160C94CA020C94F5010C946C1B43
:1001F0000C94E6020C945A1B0C940F020C94921669
:100200000C94FF230C9411020C94F8230C94CF1B34
:100210000C940D240C94DF020C94D0230D0A0020C2
:10022000003A2000000020002300260029002C00B6
:100230002F0032000001000003010601090105053D
:100240000505070508080808020202020A0A08084C
:10025000040404040101010101010101030303037A
:1002600003030303040707070C0C0C0C0C0C0C0C09
:100270000202020206060606060606060B0B0B0B1A
:100280000B0B0B0B0102102020080810204010203F
:10029000408002010201080402010102040810204A
:1002A0004080804020100804020180040201804048
:1002B00020100804020108040201010204081020B1
:1002C0004080010204081020408000002200250028
:1002D00028002B002E00310034000201000005012F
:1002E00008010B0100000A0B02090C0D0E080703A0
:1002F00004010000000000000000000000000000F9
:1003000000000000000000000000000000000000ED
:1003100012111000000000000000000000000000AA
:100320000000000000000000000000002100240088
:1003300027002A002D0030003300010100000401D5
:1003400007010A014E414E494E495459494E46CD86
:10035000CCCC3D0AD7233C17B7D13877CC2B32957C
:1003600095E6241FB14F0A000020410000C842005A
:10037000401C4620BCBE4CCA1B0E5AAEC59D740024
:100380008B2F182F11241FBECFEFD1E2DEBFCDBFC0
:1003900000E00CBF16E0A0E0B2E0EAECF1E700E01C
:1003A0000BBF02C007900D92A23FB107D9F72BE017
:1003B000A2EFB6E001C01D92A33BB207E1F711E046
:1003C000C1ECD1E000E006C021970109802FFE01B9
:1003D0000E941132C03CD10780E00807A9F70E94B3
:1003E00029270C94D3380C940000FC01ED5EFE4FDD
:1003F00080819181DC01ED91FC910084F185E02DFB
:100400001994FC01ED5EFE4F80819181DC01ED913C
:10041000FC910280F381E02D199480E0089580E042
:1004200008954F925F926F927F928F929F92AF92B8
:10043000BF92CF92DF92EF92FF920F931F93CF93D1
:10044000DF93CDB7DEB7CB56D1090FB6F894DEBF38
:100450000FBECDBF7C016B0186EF93E00E94C50EFD
:10046000C6010E94C70EB601CE018C5A9F4F0E9452
:10047000001D22E548E264E180E00E942A0E67E068
:1004800074E0CE01825B9F4F0E94001D61E174E029
:10049000CE01885B9F4F0E94001DBE01625B7F4FB3
:1004A000CE018C5A9F4F0E946F1C882309F4D4C63A
:1004B0006A962EAD3FAD6A9764964EAD5FAD649778
:1004C000BE016C5A7F4FCE01865A9F4F0E94151D68
:1004D0006AE174E08E010F5F1F4F6801C8010E943E
:1004E000001DB801CE01865A9F4F0E946F1C8823C1
:1004F00039F011E0A0968EAD9FADA097049709F05A
:1005000010E0C6010E94FB1C112309F418C10E94CF
:100510006411DC01CB018F709927AA27BB270297B2
:10052000A105B10509F021C1A0968EAD9FADA097A0
:10053000049740F06C96EEADFFAD6C97309711F0DC
:10054000138101C010E04091BD085091BE08609138
:10055000BF087091C008452B462B472B51F01092D5
:10056000BD081092BE081092BF081092C0080E94E9
:100570004610812F110F990BAA0BBB0BFC01F197B1
:10058000E830F10508F061C68827EE58FF4F8F4F1D
:100590000C94113280E090E00E94B91180E090E06C
:1005A00030C081E090E00E94B91181E090E029C064
:1005B00082E090E00E94B91182E090E022C084E0E5
:1005C00090E00E94B91184E090E01BC085E090E0CB
:1005D0000E94B91185E090E014C086E090E00E948E
:1005E000B91186E090E00DC083E090E00E94B9115F
:1005F00083E090E006C087E090E00E94B91187E0B8
:1006000090E00E94851183EB98E00E94D41A0E942A
:10061000F910182F83EB98E00E94CD1A1123F9F0FE
:1006200083EB98E00E94D41A43E050E060E470E06D
:1006300080E090E00E94A30F83E090E00E942011F0
:100640002B013C018091C808882321F081E090E0D3
:100650000E94201183EB98E00E94CD1A04C0B0EFF5
:100660004B2E542C32018090D3089090D408A09047
:10067000D508B090D6088091C5088530C1F048F4FF
:10068000833081F0843011F520E030E040E85DE314
:1006900017C0863089F08730C9F420E030E040E0B0
:1006A0005CE30EC020E030E040E05EE309C020E003
:1006B00030E040E05DE304C020E030E040E85CE38F
:1006C000C501B4010E94F8374B015C0110EF4116DF
:1006D00051066106710661F18091C408811119C04B
:1006E000C301B2010E9497379B01AC010E941A32EC
:1006F0002FEF3FEF4FE75BE40E94863220E030E0CF
:1007000040E85FE30E9419329B01AC01C501B401CE
:100710000CC0C301B2010E9497372FEF3FEF4FE7A4
:100720005BE40E948632A50194010E94F83704C060
:1007300061EF70EF80E79FE4AB01BC01E7C26EE1BF
:1007400074E0C6010E94001DB601CE01865A9F4F7B
:100750000E946F1C182FC6010E94FB1C112309F474
:1007600022C20E94D50E811104C0C7010E947618D2
:100770006FC524961FAE1EAE249726961FAE1EAEE2
:10078000269728961FAE1EAE28976C966EAD7FAD4D
:100790006C976115710549F0A0964EAD5FADA097BD
:1007A000CE018E5B9F4F0E94D01C64E274E0CE01AC
:1007B0008E5B9F4F0E948A1C882381F0670129E885
:1007C000C21A2EEFD20AF6014081518162817381F3
:1007D000C7010E94851E8DE294E031C068E374E099
:1007E000CE018E5B9F4F0E948A1C882381F0670197
:1007F000F5E8CF1AFEEFDF0AF601408151816281F0
:100800007381C7010E94851E83E494E018C060E5EF
:1008100074E0CE018E5B9F4F0E948A1C8823C9F032
:100820006701F1E8CF1AFEEFDF0AF601408151813E
:1008300062817381C7010E94851E8AE594E00E944F
:10084000C50EF60160817181828193810E942F1F04
:10085000A4C166E674E0CE018E5B9F4F0E948A1CA5
:10086000882341F0C7010E94761885E794E00E9432
:10087000C70E93C11A8219821C821B821E821D829E
:1008800024966EAD7FAD24976115710539F02896D9
:100890004EAD5FAD2897C6010E94D01C67E874E09A
:1008A000C6010E948A1C882381F05701F7EEAF1A17
:1008B000FEEFBF0AF5014081518162817381C7015A
:1008C0000E94851E89E994E02DC066EA74E0C601A5
:1008D0000E948A1C882381F05701F3EEAF1AFEEFC5
:1008E000BF0AF5014081518162817381C7010E9475
:1008F000851E88EB94E016C065EC74E0C6010E948A
:100900008A1C8823C9F05701FFEDAF1AFEEFBF0A1A
:10091000F5014081518162817381C7010E94851E6A
:1009200087ED94E00E94C50EF5016081718182819E
:1009300093810E942F1F2EC164EE74E0C6010E94B5
:100940008A1C882381F05701FBEDAF1AFEEFBF0A26
:10095000F5014081518162817381C7010E94851E2A
:1009600086EF94E0DFCF63E075E0C6010E948A1C49
:10097000882381F05701F7EDAF1AFEEFBF0AF501AA
:100980004081518162817381C7010E94851E85E18A
:1009900095E0C8CF62E275E0C6010E948A1C8823F8
:1009A00081F05701F3EDAF1AFEEFBF0AF501408168
:1009B000518162817381C7010E94851E84E395E0A5
:1009C000B1CF61E475E0C6010E948A1C882381F0E2
:1009D0005701FFECAF1AFEEFBF0AF50140815181CC
:1009E00062817381C7010E94851E83E595E09ACFDD
:1009F00060E675E0C6010E948A1C882381F05701D9
:100A0000FBECAF1AFEEFBF0AF50140815181628114
:100A10007381C7010E94851E82E795E083CF6FE74F
:100A200075E0C6010E948A1C882381F05701F7EC0B
:100A3000AF1AFEEFBF0AF5014081518162817381D7
:100A4000C7010E94851E81E995E06CCF6EE975E0D3
:100A5000C6010E948A1C882381F05701F3ECAF1A6B
:100A6000FEEFBF0AF5014081518162817381C701A8
:100A70000E94851E80EB95E055CF6DEB75E0C601B9
:100A80000E948A1C882381F05701FFEBAF1AFEEF0A
:100A9000BF0AF5014081518162817381C7010E94C3
:100AA000851E8FEC95E03ECF6CED75E0C6010E948F
:100AB0008A1C882381F05701FBEBAF1AFEEFBF0AB7
:100AC000F5014081518162817381C7010E94851EB9
:100AD0008EEE95E027CF6BEF75E0C6010E948A1C71
:100AE000882381F05701F7EBAF1AFEEFBF0AF5013B
:100AF0004081518162817381C7010E94851E8DE012
:100B000096E010CF6AE176E0C6010E948A1C882335
:100B100081F05701F3EBAF1AFEEFBF0AF5014081F8
:100B2000518162817381C7010E94851E8CE296E02B
:100B3000F9CE69E376E0C6010E948A1C882381F021
:100B40005701FFEAAF1AFEEFBF0AF501408151815C
:100B500062817381C7010E94851E8BE496E0E2CE1C
:100B600068E576E0C6010E948A1C882381F057015F
:100B7000FBEAAF1AFEEFBF0AF501408151816281A5
:100B80007381C7010E94851E8AE696E0CBCEC7011D
:100B90000E94AB18C6010E94FB1CCE018E5B9F4FCA
:100BA0000E94FB1C55C367E776E0CE01865A9F4F33
:100BB0000E948A1C882309F4ADC08091790880398D
:100BC00009F0D3CD8BE796E00E94C70E8EE49DE03E
:100BD000A0E0A3968DAF9EAFAFAFA397E091E208E0
:100BE000F091E308438D6085A680B78024961FAE00
:100BF0001EAE24971A82198286019E012E5B3F4FFA
:100C0000C5010E945A2381110EC049815A81249640
:100C10006EAD7FAD24978E01005A1F4F22E030E069
:100C2000C5010E94EF258111A0CD80E490E0A89637
:100C30009FAF8EAFA89781E4F60111928A95E9F7EC
:100C4000E091E208F091E308408D6085A680B780CE
:100C5000A6961FAE1EAEA69724961FAE1EAE249774
:100C60008E010E5B1F4F9E012C593F4FC5010E9404
:100C70005A2381110FC024964EAD5FAD2497A696DE
:100C80006EAD7FADA69786019E012A593F4FC501E3
:100C90000E949322811169CDA8968EAD9FADA89731
:100CA000039708F462CDBE016D5F7F4FCE018E5B6E
:100CB0009F4F0E94001D24968EAD9FAD24970097F4
:100CC00029F00E94C235AB01BC0103C040E050E0F6
:100CD000BA01CE018E5B9F4FA9964FAFA997AA96F6
:100CE0005FAFAA97AB966FAFAB97AC967FAFAC9761
:100CF0000E94FB1CA9964FADA997AA965FADAA9733
:100D0000AB966FADAB97AC967FADAC97C7010E9429
:100D1000851E9EC263E876E0CE01865A9F4F0E94F0
:100D20008A1C882309F440C00E94F61F882309F416
:100D30001CCD8091A1088B3031F008F47AC0855128
:100D4000823020F076C060919D086BC010919D08A4
:100D5000612F6F7770E080E090E00E94993720E08B
:100D600030E040E853E40E94F8374B015C01809189
:100D70009E08682F70E080E090E00E9499379B0108
:100D8000AC01C501B4010E941A322DEC3CEC4CECD4
:100D90005DE30E94F8374B015C0117FF50C0B7FAC2
:100DA000B094B7F8B0944BC06FE876E0CE01865AA5
:100DB0009F4F0E948A1C882309F44BC00E94F61F93
:100DC000882309F4D2CC8091A1088B3041F188F1BD
:100DD0008551823070F560919B0870E080E090E072
:100DE0000E94973720E030E040E853E40E94F83753
:100DF0004B015C0180919C08682F70E080E090E0DE
:100E00000E9499379B01AC01C501B4010E941A32BE
:100E10002DEC3CEC4CEC5DE30E94F83707C0609190
:100E20009B0870E080E090E00E9497374B015C01E6
:100E300006C0812C912CA0ECAA2EAFE7BA2EA501FA
:100E40009401C501B4010E942C33882309F48CC19C
:100E50008CCC68E976E0CE01865A9F4F0E948A1CAE
:100E6000882309F484C163E080E890E00E944F0F7A
:100E70006EE070E080E090E00E9446258CE890E013
:100E80000E94ED208093F7068DE890E00E94ED200F
:100E90008093F8068EE890E00E94ED208093F9069A
:100EA0008FE890E00E94ED208093FA062091F806EA
:100EB00030E0322F22279091F706292B3093FC0641
:100EC0002093FB0690E0982F88272091F906822B2B
:100ED0009093FE068093FD0660E080E890E00E941B
:100EE0004F0FE091FD06F091FE06309709F424C102
:100EF0002091FB063091FC06C901BF010E94DB3145
:100F00006230710528F4253203E1300708F019C179
:100F100080E791E5A7E0B0E08093FF06909300079B
:100F2000A0930107B0930207D90120E731E547E01C
:100F300050E00E94B9384B015C016AE0B694A79476
:100F4000979487946A95D1F7809207079092080743
:100F5000A0920907B0920A07DF010E94B9382B015D
:100F60003C017AE076946794579447947A95D1F748
:100F7000409203075092040760920507709206079B
:100F800081149104A104B10449F410920B0710924A
:100F90000C0710920D0710920E0715C0C301B20185
:100FA0003AE0660F771F881F991F3A95D1F7A50180
:100FB00094010E94EF3120930B0730930C0740936C
:100FC0000D0750930E0780910B0790910C07A0918D
:100FD0000D07B0910E070196A11DB11DB695A795FD
:100FE0009795879581349105A105B10548F482EF65
:100FF00091E09093100780930F078EEB91E056C01D
:1010000081389105A105B10548F484E192E09093FF
:10101000100780930F0781ED92E048C0813C910555
:10102000A105B10548F48FE392E0909310078093F7
:101030000F078BE793E03AC0813011E09107A105DB
:10104000B10548F480E792E09093100780930F0772
:101050008EEF93E02BC0893321E09207A105B10503
:1010600048F48FE691E09093100780930F078CEF80
:1010700091E01CC08B3931E09307A105B10548F41C
:1010800082ED90E09093100780930F078BEF90E034
:101090000DC08B399240A105B10568F488E190E05C
:1010A0009093100780930F0782E190E090931207CE
:1010B0008093110708C01092100710920F0710922A
:1010C000120710921107A0910F07B0911007A50108
:1010D00094010E94B9384B015C01F0E29F0EA11C03
:1010E000B11CA0911107B0911207A30192010E94B7
:1010F000B93895018401061B170B280B390BB90170
:10110000A801009313071093140720931507309339
:1011100016078EE076956795579547958A95D1F78E
:1011200040931707509318076093190770931A0795
:10113000342F252FCB0109C030E020E080E090E083
:1011400004C03FEF2FEF8FEF9FEF632F722F0E94AE
:1011500099374B015C0120E030E040E85FEB0E94F2
:101160009237882309F401CBB501A401CFCD66EBFA
:1011700076E0CE01865A9F4F0E948A1C8823B1F0E8
:101180008DE898E00E941F1A20E030E048EC52E41D
:101190000E94F837A4966CAF7DAF8EAF9FAFA49737
:1011A00024E030E0AE01405A5F4F4AC067EC76E081
:1011B000CE01865A9F4F0E948A1C8823E1F08FE758
:1011C00098E00E941F1A20E030E040E85AE30E94B5
:1011D000F83720E030E44CE955E40E94F8372696D1
:1011E0006CAF7DAF8EAF9FAF269724E030E0AE01AD
:1011F0004E5B5F4F25C063EA76E0CE01865A9F4F73
:101200000E948A1C882309F182E40E942725BC01E0
:10121000990F880B990B0E94993720E030E040E845
:101220005AE30E94F83720E030E44CE955E40E948C
:10123000F83769837A838B839C8324E030E0A601AE
:1012400061E2C7010E94021803C0C7010E94AB18E7
:10125000CE01865A9F4F4FC0BE01685B7F4FCE01C3
:101260008C5A9F4F0E946F1C882309F447C06A96CE
:101270002EAD3FAD6A972E964EAD5FAD2E97BE0157
:101280006C5A7F4FCE018E5B9F4F0E94151D6CEAFA
:1012900076E0CE0101960E94001DBE016F5F7F4F78
:1012A000CE018E5B9F4F0E946F1C182FCE010196BE
:1012B0000E94FB1C112321F0C7010E94761818C060
:1012C0006DEB76E0CE0101960E94001DBE016F5FBE
:1012D0007F4FCE018E5B9F4F0E946F1C182FCE0157
:1012E00001960E94FB1C1111E7CFC7010E94AB18A9
:1012F000CE018E5B9F4F0E94FB1C03C0C7010E9462
:10130000AB18CE01885B9F4F0E94FB1CCE01825B15
:101310009F4F0E94FB1CCE018C5A9F4F0E94FB1CCA
:10132000C559DF4F0FB6F894DEBF0FBECDBFDF91BA
:10133000CF911F910F91FF90EF90DF90CF90BF90D2
:10134000AF909F908F907F906F905F904F90089597
:101350000C9480258F929F92AF92BF92CF92DF9292
:10136000EF92FF920F931F93CF93DF936A01FC01DB
:10137000ED5EFE4FC081D1817B0100E010E00C15D5
:101380001D0561F10E948025688779878A879B8780
:10139000E881F9810284F385E02DCE01199597FF4C
:1013A00017C00E94802588849984AA84BB84DC01AC
:1013B000CB0188199909AA09BB098C809D80AE8050
:1013C000BF8088159905AA05BB0510F3680106C002
:1013D000F70181937F010F5F1F4FD1CFC601DF91CE
:1013E000CF911F910F91FF90EF90DF90CF90BF9022
:1013F000AF909F908F90089508958EBD00000DB41A
:1014000007FEFDCF8EB508958CBD9DBD08950F9349
:101410001F93CF93DF93D82FC8E00BE410E0D7FFE2
:1014200002C061E001C060E080917B080E948524D9
:1014300060E080917A080E948524C8010197F1F745
:1014400061E080917A080E948524C8010197F1F734
:10145000DD0FC15021F7DF91CF911F910F910895BA
:101460002F923F924F925F926F927F928F929F92B4
:10147000AF92BF92CF92DF92EF92FF920F931F93A2
:10148000CF93DF93CDB7DEB760970FB6F894DEBF8A
:101490000FBECDBF3C01542E422E302E2E2CEEA07E
:1014A000FFA0188A1F861E861D868E01035F1F4FB0
:1014B0009E01215F3F4F40E00E945A23811198C056
:1014C00059824A823B822C82DE82CD82B886AF82EC
:1014D000AE014F5F5F4F68E080E20E94F9152D85F5
:1014E0003E8540E060E1C3010E948C25182F8111E8
:1014F0007BC0452C441C4424441CE114F10409F431
:1015000066C0EF85F8898281442009F451C0826069
:101510008283650155245394C114D10409F445C054
:101520009C868B864D855E856F85788987019E01B7
:10153000255F3F4FC3010E949322182F863091F4FC
:101540002F84388888EF0E94411685FB882780F910
:101550008525D10112969C91129780FB91F91296E4
:101560009C93DACF811140C0E8A5F9A53097A1F08E
:101570000190F081E02D0190F081E02DC5018C19E2
:101580009D099A8789876B857C859E01275F3F4FE0
:10159000A70188A599A519958B859C85C81AD90A94
:1015A0008815990508F0B8CF12C011111DC014C0DC
:1015B000816082834D855E8587019401BF01C301EF
:1015C0000E94EF25811114C02D853E850FC02D8509
:1015D0003E85411003C00AC02D853E8560EA40E08B
:1015E000C3010E948C2504C0812F02C060E8F7CFA0
:1015F00060960FB6F894DEBF0FBECDBFDF91CF91DE
:101600001F910F91FF90EF90DF90CF90BF90AF9020
:101610009F908F907F906F905F904F903F902F9012
:1016200008958F929F92AF92BF92CF92DF92EF92E6
:101630000F93CF931F921F921F921F92812C912C78
:10164000A12CB12CC12CD12CE12C062F25E040E09F
:1016500060E00E94300AC82F6CE271E080E090E008
:101660000E9446250F900F900F900F908C2FCF91D6
:101670000F91EF90DF90CF90BF90AF909F908F90A1
:101680000895CF92DF92FF920F931F93CF93DF9332
:10169000F62ED1E0082F10E0000F111F065A164F4A
:1016A0006801D8018D919C91DC01ED91FC91028043
:1016B000F381E02D2F2D40E060E01995803E59F434
:1016C00061E088EE0E941E1666E670E080E090E021
:1016D0000E94462509C08D3029F49FEF9D0F93305D
:1016E00060F516C0811129C0F60180819181DC016D
:1016F000ED91FC910190F081E02D2F2D40E060E014
:101700001995C82F8D3061F48FEF8D0F833050F411
:1017100064E670E080E090E00E944625DF5FC1CF84
:10172000882351F061E088EE0E941E1666E670E0A4
:1017300080E090E00E9446258C2FDF91CF911F9191
:101740000F91FF90DF90CF90089588EF0E94671E61
:10175000807C8034A1F018F4882301F1089580384A
:1017600019F0803CB9F0089588ED0E94671E81FD54
:101770000BC069EC88ED0E94441E82E00CC088ED2D
:101780000E94671E81FDF5CF6BEC88ED0E94441E20
:1017900083E001C081E080936607089561ED88EDE4
:1017A0000E94441E109266070895AF92BF92CF9296
:1017B000DF92EF92FF920F931F93CF93DF93CDB7FA
:1017C000DEB7EE970FB6F894DEBF0FBECDBF8C012B
:1017D0008091DA089091DB080E94040A60E0809111
:1017E000D7080E94852480E30E94FD0961E0809172
:1017F000D7080E9485240E94FC096CE070E080E01C
:1018000090E00E9446258091DA089091DB080E94C2
:10181000040A60E08091D7080E948524CE010196D9
:101820007C016E019FE3C90ED11CEBE0AE2EB12C02
:1018300080E00E94FD09F70181937F01C5010197B6
:10184000F1F7EC15FD05A1F761E08091D7080E9442
:1018500085240E94FC09CDA4DEA47FA568A9F80117
:10186000E85AFF4FC601A72FB62F80839183A2832A
:10187000B383EDA0FEA0BFA0A8A49801205B3F4FBA
:10188000C701AB2DBA2DF90180839183A283B38365
:101890009601472F562FB7018B2D9A2D0E94F837AE
:1018A0006B017C016A8170E0762F66278981682B45
:1018B00080E090E00E949737A70196010E9486324F
:1018C000F80160837183828393836C8170E0762F4B
:1018D00066278B81682B80E090E00E949737A701F4
:1018E00096010E948632F80164837583868397830C
:1018F0006E8170E0762F66278D81682B80E090E006
:101900000E949737A70196010E948632F8016087EE
:10191000718782879387688570E0762F66278F812D
:10192000682B80E090E00E949737A70196010E9403
:101930008632F80164877587868797876A8570E0A5
:10194000762F66278985682B80E090E00E94973784
:10195000A70196010E948632F801608B718B828B01
:10196000938B6C8570E0762F66278B85682B80E0E3
:1019700090E00E949737A70196010E948632F801F5
:10198000648B758B868B978B6E8570E0762F6627C0
:101990008D85682B80E090E00E949737A701960123
:1019A0000E948632F801608F718F828F938F6889D1
:1019B00070E0762F66278F85682B80E090E00E948C
:1019C0009737A70196010E948632F801648F758FC0
:1019D000868F978F6A8970E0762F66278989682BB2
:1019E00080E090E00E949737A70196010E9486321E
:1019F000F80160A371A382A393A36C8970E0762F92
:101A000066278B89682B80E090E00E949737A701BA
:101A100096010E948632F80164A375A386A397A35A
:101A20006E8970E0762F66278D89682B80E090E0C4
:101A30000E949737A70196010E948632F80160A79D
:101A400071A782A793A7688D70E0762F66278F898C
:101A5000682B80E090E00E949737A70196010E94D2
:101A60008632F80164A775A786A797A76A8D70E0EC
:101A7000762F6627898D682B80E090E00E9497374B
:101A8000A70196010E948632F80160AB71AB82AB70
:101A900093AB6C8D70E0762F66278B8D682B80E082
:101AA00090E00E949737A70196010E948632F801C4
:101AB00064AB75AB86AB97AB6E8D70E0762F662707
:101AC0008D8D682B80E090E00E949737A7019601EA
:101AD0000E948632F80160AF71AF82AF93AF68A108
:101AE00070E0762F66278F8D682B80E090E00E9453
:101AF0009737A70196010E948632F80164AF75AF4F
:101B000086AF97AF7801F0E4EF0EF11C69A170E0A9
:101B100080E090E00E94993720E030E040E450E41B
:101B20000E948632F70160837183828393837801F8
:101B3000F4E4EF0EF11C6AA170E080E090E00E94F6
:101B4000993720E030E040E450E40E948632F7010B
:101B500060837183828393837801F8E4EF0EF11C34
:101B60006BA170E080E090E00E94993720E030E0C7
:101B700040E450E40E948632F701608371838283DF
:101B800093837801FCE4EF0EF11C6CA170E080E01F
:101B900090E00E94993720E030E040E450E40E9459
:101BA0008632F701608371838283938338962CA5F4
:101BB0008BA590E0A0E0B0E0DC0199278827B22B4C
:101BC00029A5822B2AA5922B80839183A283B3839C
:101BD00038968AA990E0982F882729A9822B91838B
:101BE00080835BA94CA93DA92EA93296852F942FFD
:101BF000A32FB22F80839183A283B3835FA948ADC3
:101C000039AD2AAD3496852F942FA32FB22F808320
:101C10009183A283B3835BAD4CAD3DAD2EAD3496C5
:101C2000852F942FA32FB22F80839183A283B38318
:101C3000C801EE960FB6F894DEBF0FBECDBFDF91A0
:101C4000CF911F910F91FF90EF90DF90CF90BF90B9
:101C5000AF9008956F927F928F929F92AF92BF92B2
:101C6000CF92DF92EF92FF920F931F93CF93DF9368
:101C7000982E862E742E622E80E00E94070A80E045
:101C80000E94070A80E00E94070A80E00E94070A7B
:101C900083E0989E8001112478018FEFE81AF80AFA
:101CA000680182E0C80ED11CC0E080917C08C81792
:101CB00008F03FC0C91115C0E0917D08F0917E0881
:101CC000E00FF11F8082E0917D08F0917E08EE0D1B
:101CD000FF1D7082E0917D08F0917E08EC0DFD1DE6
:101CE0006082E0917D08F0917E0883E0C89FE00D5E
:101CF000F11D1124A280B180D081A7FC02C080EE2A
:101D000001C080ECA6FE8061B7FE8860B6FE8460EC
:101D1000D7FF8260D6FF81600E94070A8A2D0E9449
:101D2000070A8B2D0E94070A8D2F0E94070ACF5F9A
:101D3000BCCF80E00E94070A80E00E94070A80E092
:101D40000E94070A80E0DF91CF911F910F91FF90D1
:101D5000EF90DF90CF90BF90AF909F908F907F904B
:101D60006F900C94070A009769F0FC010190002025
:101D7000E9F73197AF01481B590BBC018CED97E097
:101D80000C94151B80E090E008950C94B30ECF9353
:101D9000DF930E94B30EEC018EE792E00E94B30E37
:101DA0008C0F9D1FDF91CF910895CF938091DA081A
:101DB0009091DB080E94040A60E08091D7080E949D
:101DC00085248FEC0E94FD09C82F61E08091D7081F
:101DD0000E9485240E94FC0981E0C33F09F080E055
:101DE000CF910895382F2091650790916407213293
:101DF00008F049C0809141078111FCCF42E0409337
:101E00004107309340073FEF30933F0710923E0762
:101E100020933D07A4E4B7E04DE157E0FA013E2FDF
:101E2000341B321718F43D913193F9CF10921C07EF
:101E300020911C07990F922B90931C0790911B07E0
:101E4000913061F410921B0790911C079093BB0096
:101E50009091BC0093FDF8CF95EC01C095EE909366
:101E6000BC00909141079230E1F390913F079F3F72
:101E700079F080913F07803241F080913F078033B5
:101E800031F084E005C081E003C082E001C083E05E
:101E90001092430710926507109242070895CF935E
:101EA000C62F91E09093420799E2909364071092B5
:101EB000430710926507682F80ED97E00E94ED16AA
:101EC0006C2F80ED97E00E94ED1681E0CF910C948D
:101ED000F20EEF92FF920F931F93CF93DF9300D0F8
:101EE0001F92CDB7DEB78C010150104E23E0000FDA
:101EF000111F2A95E1F77C0181E0E81AF108F7FC4F
:101F000017C0DB01CA01002E04C0B695A7959795AE
:101F100087950A94D2F749835A836B837C830E9406
:101F2000FD09085011097C816B815A814981E4CFF8
:101F30000F900F900F900F90DF91CF911F910F9105
:101F4000FF90EF9008954770552783E0440F551F89
:101F50008A95E1F7642B8091B508811102C040E0B9
:101F600001C044E0462B50E060E070E081E090E08A
:101F70000C94690F0F931F93E3EBF8E08389948926
:101F8000A0E0B0E0AC01BD0185E1440F551F661F24
:101F9000771F8A95D1F79589892F90E0A0E0B0E06E
:101FA00024E1880F991FAA1FBB1F2A95D1F7842B04
:101FB000952BA62BB72B468D578D60E070E0842BB8
:101FC000952BA62BB72B4689578960E070E032E14C
:101FD000440F551F661F771F3A95D1F7842B952B19
:101FE000A62BB72B208DA22B418D50E060E070E036
:101FF0001FE0440F551F661F771F1A95D1F7842BDA
:10200000952BA62BB72B428D50E060E070E00DE0E1
:10201000440F551F661F771F0A95D1F7842B952B08
:10202000A62BB72B438D50E060E070E02CE0440F0E
:10203000551F661F771F2A95D1F7842B952BA62B4A
:10204000B72B448D50E060E070E03BE0440F551F3B
:10205000661F771F3A95D1F7842B952BA62BB72BAC
:10206000458D50E060E070E0EAE0440F551F661FC8
:10207000771FEA95D1F78C019D01042B152B262B98
:10208000372BC901B8011F910F9108958F929F922C
:10209000AF92BF92CF92DF92EF92FF9283EB98E0E4
:1020A0000E94D41AE3EBF8E08289C284D384E484EA
:1020B000F584FE2CED2CDC2CCC24C82A878190E002
:1020C000A0E0B0E027E1880F991FAA1FBB1F2A9547
:1020D000D1F7C82AD92AEA2AFB2A808590E0A0E015
:1020E000B0E034E1880F991FAA1FBB1F3A95D1F7C2
:1020F000C82AD92AEA2AFB2A818590E0A0E0B0E02C
:1021000042E1880F991FAA1FBB1F4A95D1F7C82A21
:10211000D92AEA2AFB2A868590E0A0E0B0E057E0C1
:10212000880F991FAA1FBB1F5A95D1F7C82AD92A11
:10213000EA2AFB2A878590E0A0E0B0E066E0880FFD
:10214000991FAA1FBB1F6A95D1F7C82AD92AEA2A64
:10215000FB2A808990E0A0E0B0E074E0880F991F2E
:10216000AA1FBB1F7A95D1F7C82AD92AEA2AFB2AC7
:10217000818990E0A0E0B0E0E3E0880F991FAA1FFA
:10218000BB1FEA95D1F7C82AD92AEA2AFB2A0E945E
:10219000BA0F4B015C0142E050E060E070E0CB011F
:1021A0000E94A30FB701A60183E090E00E94690F8F
:1021B00041E050E060E070E0CB010E94A30FB50168
:1021C000A40183E090E00E94690F80E2E3EBF8E075
:1021D000DF0101900D928A95E1F783EB98E0FF9083
:1021E000EF90DF90CF90BF90AF909F908F900C9426
:1021F000CD1ACF92DF92EF92FF92CF930E9480256B
:102200006B017C01C0E00E948025DC01CB018C19B0
:102210009D09AE09BF0980319742A105B10548F477
:10222000C11107C082E30E945C24C1E0892B59F3ED
:10223000E9CF8C2FCF91FF90EF90DF90CF90089552
:10224000CF92DF92EF92FF920F931F93CF93DF9382
:10225000CDB7DEB78C01EDB6FEB68DB79EB7801B4D
:10226000910B0FB6F8949EBF0FBE8DBF01966C0107
:10227000A80160E070E00E9483350115110521F08E
:10228000B801C6010E94221EF6010C0D1D1D60E062
:1022900070E0CB01E017F10749F0B82FA72F962F78
:1022A00088272191BC01CD01622BF4CF0FB6F894A1
:1022B000FEBE0FBEEDBEDF91CF911F910F91FF903B
:1022C000EF90DF90CF900895CF92DF92EF92FF9240
:1022D00083EB98E00E94D41A44E050E060E470E0A0
:1022E00080E090E00E94A30F81E090E00E94201126
:1022F0006B017C0183EB98E00E94CD1AC701B60107
:10230000FF90EF90DF90CF9008950F931F9321E0FF
:1023100030E0A90102C0440F551F8A95E2F7CA01B7
:10232000092E000CAA0BBB0B4091BD085091BE08B2
:102330006091BF087091C0088C019D010423152392
:1023400026233723012B022B032B81F4842B952B7F
:10235000A62BB72B8093BD089093BE08A093BF080F
:10236000B093C0081F910F910C9446101F910F91CC
:102370000895CF93C82F80FF02C061E001C060E0E4
:102380008091AD080E948524C1FF02C061E001C0B8
:1023900060E08091AF080E948524C2FF02C061E026
:1023A00001C060E08091B108CF910C948524E09148
:1023B000DC07F091DD070190F081E02D682F8CEDB6
:1023C00097E0199480E00895CF93DF93EC018E811C
:1023D0009F81DC01ED91FC910480F581E02D688501
:1023E0001995188681E08B871C861D861E861F86A0
:1023F000188A8C819D81DC01ED91FC910280F38132
:10240000E02DBE01DF91CF9119946330744021F427
:1024100081E04130504609F080E00895FC0180855C
:1024200008950895DF92EF92FF920F931F93CF9339
:10243000DF93EC01E62EF12C85E0689FB0011124BA
:10244000FE01E60FF71F8085182F177086FF21C049
:1024500001E085E0D82E8FEF800F8F3008F001E08B
:10246000FE01D09EE00DF11D112480858695869594
:1024700086958770811305C0602FCE010E941212CD
:10248000EACF0F5F003161F78D81811302C01150D7
:102490001D8385E08E9DF0018F9DF00D1124EC0FC2
:1024A000FD1F108681E0818712862296D783C6831E
:1024B000DF91CF911F910F91FF90EF90DF900895E2
:1024C000FC016134C1F43F969C01265A3F4F61E004
:1024D000AC014E5F5F4FDF0112971C9211966C9317
:1024E000108213974D935C933596E217F30799F793
:1024F000FC01158208953D9621E03081361303C01A
:10250000622F0C9412122F5F35962031B1F7089587
:10251000CF93DF93FC01862F807809F051C02830DB
:1025200008F04FC0442321F09581973009F449C049
:10253000EF012D96A0E0B0E011969881911103C0B3
:10254000662331F021C02596AF30B105A9F739C017
:1025500085E08A9FE0018B9FD00D1124CE0FDF1FF5
:10256000442331F081E4888785818F5F858302C0B1
:1025700081E0888725E02A9FC0012B9F900D1124C0
:10258000E80FF91F80851DC06770660F660F660F24
:10259000442341F0606485818F5F85838770687F05
:1025A000682B03C02770687B622B25E02A9FC0013F
:1025B0002B9F900D1124E80FF91F6087862F01C013
:1025C00080E0DF91CF910895611102C006960895D1
:1025D000FC013D9621E03081361307C035E0239F92
:1025E000800D911D1124069608952F5F3596203198
:1025F00091F780E090E008953F924F925F926F9242
:102600007F928F929F92AF92BF92CF92DF92EF9282
:10261000FF920F931F93CF93DF9300D01F92CDB7FC
:10262000DEB76C017C836B835A8349834C0180E164
:10263000880E911C5601A7E0AA0EB11C11E084E09F
:10264000482E3601B2E16B0E711C93E0392E22E068
:10265000522E8B819C81892B09F4FEC0F60190A13A
:10266000923059F128F4992341F0913071F0F1CF73
:10267000933039F19430C1F1ECCF54828581968149
:10268000908787835286518610A3AE014D5F5F4FBE
:10269000BE016F5F7F4FC5010E94E11A882309F4D4
:1026A000DBC0D6011596ED91FC911697808191962D
:1026B0008C939197818192968C93F60176826582B4
:1026C00030A2D60192968C919297843011F4939611
:1026D0001C92F60181A18250848325813681308746
:1026E00027838287818740A2D60192968C9184307D
:1026F000B1F0853009F442C0823009F06EC0AE01FD
:102700004D5F5F4FBE016F5F7F4FC5010E94E11AB1
:10271000882309F4A1C0F601858984A395C0AE0180
:102720004D5F5F4FBE016F5F7F4FC5010E94E11A91
:10273000882309F491C0D60155968C9155978F3F07
:1027400009F082C056968C9156978F3F09F07CC055
:1027500098969C91989757968C91992321F088236D
:1027600009F472C003C08F3F09F06EC0F60113A3D5
:10277000928996A3938997A385A366C0AE014D5F06
:102780005F4FBE016F5F7F4FC5010E94E11A882332
:1027900009F462C0D60193968C919397882309F42B
:1027A00053C012968D919C911397009709F44CC0D9
:1027B000DC01ED91FC910190F081E02D7401D601D6
:1027C00095960C91959797962C91979796964C91F4
:1027D000969794966C91199537C0F60181A19585CD
:1027E000992319F0913031F02AC090E00297978731
:1027F000868715872B813C8189819A81782F692F63
:10280000D6011E964D915C911F974115510539F4E3
:102810009A8389833C832B831D961C9210C001965A
:102820002115310541F041505109F601578746877E
:1028300021503109E3CF79836A831C821B82F60120
:1028400086859785892B41F4D60116969C928E92A7
:10285000159790961C92FDCE0F900F900F900F90B1
:10286000DF91CF911F910F91FF90EF90DF90CF906C
:10287000BF90AF909F908F907F906F905F904F90A0
:102880003F9008952F923F924F925F926F927F9266
:102890008F929F92AF92BF92CF92DF92EF92FF9270
:1028A0000F931F93CF93DF93CDB7DEB7C654D109F3
:1028B0000FB6F894DEBF0FBECDBFDC0116964D906B
:1028C0005C90179718961C91111170C1F22E2796E3
:1028D0004FAF279726966FAF26973C01D201ED9117
:1028E000FC910190F081E02D60E0C20119951C017E
:1028F000009711F416ED62C1FC010190F081E02D0A
:102900002596FFAFEEAF2597EF2B09F451C1930148
:102910002B5E3F4F23963FAF2EAF2397DC011196DE
:102920003C932E931496FC921F921F92CE018A968E
:102930009F938F9322E1822E912C32E1A32EB12C12
:10294000C12CD12CEE24E39400E026E040E860E0C6
:10295000F301868197810E94300A082F2596EEADFB
:10296000FFAD2597D101ED93FC930F900F900F9041
:102970000F90811111C18AA99BA98330944011F055
:1029800011ED1CC12CA93DA9D30153968D919C91A9
:10299000549728173907A1F78EA99FA952969C939F
:1029A0008E935197D201ED91FC910280F381E02D3D
:1029B00027962FAD279740E026966FAD2697C20148
:1029C0001995F3018087882309F4F4C099A9968B9F
:1029D000682F868197810E94110B082FD201ED91FB
:1029E000FC91D10114961C92882359F00480F58142
:1029F000E02DD30118966C91C2011995F301108650
:102A0000D3C00190F081E02DD30118966C91C201E2
:102A10001995009709F46ECFFC01F482ABACD30199
:102A200018960C91189716968D919C91179723964E
:102A3000EEADFFAD2397EF2B09F4ADC0602F0E94E0
:102A4000E412FC01892B09F4B7C0028323962EAD52
:102A50003FAD23973183208381E08383B12C82E1D2
:102A6000C82E82E0D82E9CE0292E92E0392E7301E8
:102A700032E0E30EF11C2E0181E1480E511CBA1424
:102A800009F440C0DDAECCAE1EAE21961FAE1EAE28
:102A900021973A822982FC82EB821E86188A1F8641
:102AA00019A21AA21BA219A65F824E8259864886D5
:102AB0008D818B878A875D864C869E01245C3F4F83
:102AC0004B2DD30118966C91189716968D919C9169
:102AD00017970E941E2F082F81115EC09E012F5F45
:102AE0003F4F4B2DF3016085868197810E941E2FF9
:102AF000082F811151C0D3011B968C91823010F4A4
:102B0000B394BDCFF3010385023008F439CFF084CC
:102B10006F2D868197810E94E412FC01892B41F080
:102B2000F28223962EAD3FAD23973183208303831A
:102B30001F921F921F921F92812C912CA12CB12CBD
:102B4000C12CD12CE12CD30119960C91199729E0B5
:102B500040E018966C91189716968D919C91179756
:102B60000E94300A082F0F900F900F900F90811144
:102B700013C0F30184819581DC01ED91FC910190FA
:102B8000F081E02DB3011995082F811105C081E076
:102B9000F301808B13C008EDD301ED91FC9104800B
:102BA000F581E02DC3011995102F08C019ED06C05D
:102BB00017ED04C014ED02C006EDEECF812FCA5B05
:102BC000DF4F0FB6F894DEBF0FBECDBFDF91CF91C0
:102BD0001F910F91FF90EF90DF90CF90BF90AF903B
:102BE0009F908F907F906F905F904F903F902F902D
:102BF00008950F931F93CF93DF93C82FD62F8A0189
:102C000080E591E00E94040A0E94401E8C2F8260A1
:102C10000E94FD09CD2FD0E0209721F0BE01C80110
:102C20000E94221EC00FD11F0E94421E0E94FC095A
:102C3000CE01DF91CF911F910F9108951F93CF93F4
:102C4000DF9300D0CDB7DEB7182F80E591E06B831E
:102C50000E94040A0E94401E126019836B816A83DD
:102C600062E070E0CE0101960E94221E0E94421E88
:102C70000E94FC090F900F900F90DF91CF911F9150
:102C800008951F93CF93DF931F92CDB7DEB7182F10
:102C900080E591E00E94040A0E94401E812F0E945C
:102CA000FD0980E00E94FD0989830E94421E0E9466
:102CB000FC0989810F90DF91CF911F91089585EDD7
:102CC0008093BC008091BC0084FDFCCF1092410732
:102CD000089540918907262F30E0240F311D2132BD
:102CE0003105DCF4209141072430C9F4FC0180E077
:102CF00090E0861758F4309189072191DC01A95999
:102D0000B84FA30FB11D2C930196F3CF8091890783
:102D1000680F6093890780E0089581E0089582E05C
:102D200008950895E091AF078091AE07E81730F459
:102D3000F0E0E055F84F808190E008958FEF9FEF2D
:102D400008959091AF078091AE07981750F4E92F3E
:102D5000F0E0E055F84F208130E09F5F9093AF079F
:102D600002C02FEF3FEFC90108958091AE0790E0B8
:102D70002091AF07821B91090895CF92DF92EF92C5
:102D8000FF920F931F93CF93DF937C01262F972FF2
:102D90008A0180914207882391F0C62FD72F6E01B8
:102DA000C40ED51ECC15DD0571F06991D701ED91EA
:102DB000FC910190F081E02DC7011995F3CF642FAC
:102DC000822F0E946916C801DF91CF911F910F9148
:102DD000FF90EF90DF90CF900895CF93DF931F92F5
:102DE000CDB7DEB76983209142072223D1F020912D
:102DF0006507203240F021E030E0FC01338322837C
:102E000080E090E015C080914307E82FF0E0EC5B94
:102E1000F84F998190838F5F809343078093650774
:102E200005C061E0CE0101960E94691681E090E044
:102E30000F90DF91CF9108958F929F92AF92BF92A2
:102E4000CF92DF92EF920F93CF93DF93EB018DEC54
:102E500096E00E94C70E1F921F921F921F92812C14
:102E6000912CA12CB12CC12CD12C90E8E92E0CE98D
:102E700023E040E468858E819F810E94300A0F9094
:102E80000F900F900F90811112C01F921F921F92EE
:102E90001F9283E1E82E01E122E040E468858E8103
:102EA0009F810E94300A0F900F900F900F90DF913A
:102EB000CF910F91EF90DF90CF90BF90AF909F9008
:102EC0008F9008958F929F92AF92BF92CF92DF9290
:102ED000EF92FF920F931F93CF93DF93EC017A0150
:102EE0006A01C60ED71E0FEFEC14FD0409F461C091
:102EF0008A81811122C0AB80BC803CE0832E912C62
:102F0000C501082C02C0969587950A94E2F78F7048
:102F100090E3980F9A3310F4892F01C0895C0E94C6
:102F2000D71184E0881A91089CEF89169FEF9906C3
:102F300039F781E292E00E944D21F70111917F0162
:102F4000812F90E024E0959587952A95E1F720E37D
:102F5000280F2A3310F4822F01C0895C0E94D711F8
:102F60001F7080E3810F8A3310F087E3810F0E9486
:102F7000D7118FE1A82E82E0B82EF501849181113E
:102F800009C08A818F3061F48CE192E00E944D216A
:102F90000A8306C0FFEFAF1ABF0A0E94D711EDCF18
:102FA0008A818F5F8A838B819C8101969C838B832E
:102FB0009BCFDF91CF911F910F91FF90EF90DF900A
:102FC000CF90BF90AF909F908F900895CF93DF9355
:102FD0001F92CDB7DEB7DC01ED91FC910280F38149
:102FE000E02D41E050E0BE016F5F7F4F19950197E2
:102FF00019F4898190E002C08FEF9FEF0F90DF916D
:10300000CF910895AF92BF92CF92DF92EF92FF924D
:103010000F931F93CF93DF9300D000D0CDB7DEB7CF
:103020007C015A018901DE01119685E0FD011192B2
:103030008A95E9F781EB898382E48A836B832C8309
:10304000FA019A01200F311F80E0E217F30719F00F
:1030500091918927FACF8E839A81898189279B81D3
:1030600089279C8189279D8189278D83F70180810C
:103070009181FC012081318145E050E0BD01C70113
:10308000F90119956C01D701ED91FC910190F08146
:10309000E02DA801B501C7011995C80ED91ED701A9
:1030A000ED91FC910190F081E02D41E050E0BE01F6
:1030B0006A5F7F4FC7011995C80ED91E0A5F1F4F5F
:1030C00081E0C016D10609F080E026960FB6F8948C
:1030D000DEBF0FBECDBFDF91CF911F910F91FF904B
:1030E000EF90DF90CF90BF90AF90089520E030E058
:1030F00040E050E062E20C9402188F929F92AF92EF
:10310000BF92CF92DF92EF92FF920F931F934A01EB
:103110005B0168017901DC01ED91FC910680F7818A
:10312000E02D1995DC01CB0188199909AA09BB0981
:1031300021E0C816D906EA06FB0608F020E0822F37
:103140001F910F91FF90EF90DF90CF90BF90AF90C5
:103150009F908F9008958F929F92AF92BF92EF921F
:10316000FF920F931F93CF93DF93EC0184E0E82E3F
:10317000F12C81E0E81AF10829F120E030E040E08C
:1031800050E063E2CE010E940218E881F9810680D6
:10319000F781E02DCE0119954B015C010CE211E0A5
:1031A00020E030E0B501A401CE010E947D1881111C
:1031B000E0CFCE010E945D218A81882379F38B8143
:1031C000823161F7DF91CF911F910F91FF90EF90C6
:1031D000BF90AF909F908F9008951F920F920FB65F
:1031E0000F9211240BB60F922F933F934F935F933F
:1031F0006F937F938F939F93AF93BF93EF93FF93BF
:103200008091B900887F803609F49CC068F58832C7
:1032100009F45BC090F4803109F454C038F4882379
:1032200009F4F6C0883009F44DC0F6C0883109F4BD
:103230004CC0803209F45DC0EFC0803409F468C02E
:1032400048F4803309F455C0883309F0E5C0809311
:103250003F07D8C0803509F44FC0883509F45DC0F8
:10326000883409F0D9C0D6C0883909F4C7C0A8F499
:10327000883709F467C038F4883609F463C08037AA
:1032800009F460C0C9C0883809F4B8C0803909F4AD
:103290005FC0803809F0C0C05BC0803B09F486C0C5
:1032A00038F4803A09F466C0883A09F47FC0B4C0A3
:1032B000803C09F4A7C0883C09F4A4C0883B09F409
:1032C0008AC0AAC080911C0710C090913E078091CF
:1032D0003D07981770F5E0913E0781E08E0F8093CF
:1032E0003E07F0E0E35EF84F80818093BB0085EC01
:1032F00086C080933F078EC0E0913E0781E08E0F2D
:1033000080933E078091BB00F0E0E35EF84F80833E
:1033100090913E0780913D076EC0E0913E0781E0AD
:103320008E0F80933E078091BB00F0E0E35EF84F84
:1033300080838091400781116DC081E080931B07DD
:1033400084EA61C083E0809341071092AD07CFCF3C
:103350008091AD07803208F051C0E091AD0781E067
:103360008E0F8093AD078091BB00F0E0E357F84FDC
:103370008083BDCF85EC8093BC0010924107809183
:10338000AD07803230F4E091AD07F0E0E357F84F3D
:1033900010826091AD0770E0E0918B07F0918C078F
:1033A0008DE897E019951092AD0736C084E08093C0
:1033B000410710928A0710928907E0918707F091E0
:1033C0008807199580918907811105C081E0809354
:1033D000890710926707E0918A0781E08E0F80933A
:1033E0008A07F0E0E959F84F80818093BB00909103
:1033F0008A0780918907981708F479CF85E8809328
:10340000BC000AC085EC8093BC001092410704C048
:1034100010923F070E945F16FF91EF91BF91AF910D
:103420009F918F917F916F915F914F913F912F91DC
:103430000F900BBE0F900FBE0F901F901895AF927C
:10344000BF92CF92DF92EF92FF920F931F93CF9391
:10345000DF93FC01008111810115110541F1A2806A
:10346000B380C0E0D0E0C12CD12C7601CA15DB05B9
:1034700091F0F801619171918F0180E090E00E94DC
:1034800097379B01AC01C701B6010E941A326B014C
:103490007C012196EBCFBE0180E090E00E9497373F
:1034A0009B01AC01C701B6010E94863203C060E0F7
:1034B00070E0CB01DF91CF911F910F91FF90EF90C2
:1034C000DF90CF90BF90AF9008952F923F924F9290
:1034D0005F926F927F928F929F92AF92BF92CF92A4
:1034E000DF92EF92FF920F931F93CF93DF93EC0144
:1034F0002A013B0148015901198218821B821A8254
:103500001D821C821E821F82188619861A861B86BF
:103510001C861D86A9019801C301B2010E94F837DB
:103520000E94F8326B017C016115710549F0660F4C
:10353000771F80E090E00E947A341C01892BD1F043
:10354000398228821D821C82DB82CA824E825F827F
:10355000688679868A869B86AC86BD86F10180E086
:1035600090E02A813B818217930720F411921192F7
:103570000196F7CFDF91CF911F910F91FF90EF90C0
:10358000DF90CF90BF90AF909F908F907F906F9083
:103590005F904F903F902F90089561E0FC018381F0
:1035A0000E9485240C94FC09CF93DF93EC01888161
:1035B00099810E94040A60E08B81DF91CF910C9485
:1035C0008524CF93DF93FC01EA0180819181892BCF
:1035D00019F580E027C028813981232BD1F3DB0145
:1035E0002D913C91D9019C91A381B0E0A81BB10918
:1035F00020813181A20FB31F9C93828181508283ED
:1036000088819981019799838883DB018D919C91B1
:10361000119701968D939C9382818111DCCF8381D8
:10362000828381E0DF91CF910895CF92DF92EF9274
:10363000FF920F931F93CF93DF936C017A018B015D
:10364000C0E0D0E0CE15DF0589F0D8016D918D0185
:10365000D601ED91FC910190F081E02DC601199504
:10366000892B11F47E0102C02196ECCFC701DF91B6
:10367000CF911F910F91FF90EF90DF90CF90089521
:10368000FC01A089B1898C91A689B78982FD0FC000
:103690009C91818D8F5F8F73228D821749F0218DD0
:1036A000DF01A20FB11D5D969C93818F08958C91CF
:1036B0000895089580E090E00895FC01538D448DB5
:1036C000252F30E0842F90E0821B930B541710F0CD
:1036D000CF96089501970895FC01918D828D9817DA
:1036E00061F0828DDF01A80FB11D5D968C91928DE6
:1036F0009F5F9F73928F90E008958FEF9FEF0895E3
:10370000FC01918D828D981731F0828DE80FF11DAB
:10371000858D90E008958FEF9FEF0895FC01918DC6
:10372000228D892F90E0805C9F4F821B91098F73BF
:10373000992708958BE799E00E948E1B21E0892B41
:1037400009F420E0822F08958CED97E00E948E1BF3
:1037500021E0892B09F420E0822F0895FC01848D5B
:10376000DF01A80FB11DA35ABF4F2C91848D90E0AB
:1037700001968F739927848FA689B7892C93A08986
:10378000B1898C9180648C93938D848D981306C03D
:103790000288F389E02D80818F7D80830895EF92E8
:1037A000FF920F931F93CF93DF93EC0181E0888FFB
:1037B0009B8D8C8D981305C0E889F989808185FDE2
:1037C00024C0F62E0B8D10E00F5F1F4F0F731127D3
:1037D000E02E8C8DE8120CC00FB607FCFACFE889FA
:1037E000F989808185FFF5CFCE010E94AE1BF1CF14
:1037F0008B8DFE01E80FF11DE35AFF4FF0820B8F16
:10380000EA89FB898081806207C0EE89FF89608335
:10381000E889F98980818064808381E090E0DF918C
:10382000CF911F910F91FF90EF900895CF93DF9369
:10383000EC01888D8823C9F0EA89FB89808185FDA8
:1038400005C0A889B9898C9186FD0FC00FB607FC09
:10385000F5CF808185FFF2CFA889B9898C9185FF4A
:10386000EDCFCE010E94AE1BE7CFDF91CF9108953F
:1038700080E090E0892B21F00E94A41B811121C0DF
:1038800080E090E0892B41F080E090E0892B21F0EE
:103890000E940000811118C080E090E0892B21F087
:1038A0000E949A1B811113C080E090E0892BA1F047
:1038B00080E090E0892B81F00E94000081110AC015
:1038C00008950E940000DCCF0E940000E5CF0E9416
:1038D0000000EACF0C94000008950E946335FB01BC
:1038E00044815581FC01248135812417350778F006
:1038F00080819181009759F0FB0160817181611590
:10390000710529F00E949A3521E0892B09F020E009
:10391000822F0895FC0124813581232B31F421E08D
:1039200061157105A1F0FB0108C0FC018081918146
:103930006115710531F421E0FC018081882339F0A3
:1039400005C00E948A3521E0892B09F020E0822FF2
:1039500008950F931F93CF93DF93EC018881998192
:10396000009729F02A813B812617370788F48B01BD
:103970006F5F7F4F0E947A34009761F0998388834C
:103980001B830A832C813D81232B11F4FC011082BF
:1039900081E001C080E0DF91CF911F910F910895E8
:1039A000EF92FF920F931F93CF93DF93EC017B0174
:1039B0008A01BA010E94A91C2881398181110DC098
:1039C0002115310519F0C9010E94E23319821882CC
:1039D0001D821C821B821A8206C01D830C83B701C4
:1039E000C9010E949335CE01DF91CF911F910F91B4
:1039F000FF90EF900895FC01808191810C94E23357
:103A0000FC011182108213821282158214826115C8
:103A1000710551F0FB0101900020E9F73197AF01EA
:103A2000461B570B0C94D01C0895BF92CF92DF9287
:103A3000EF92FF920F931F93CF93DF937C016B0163
:103A4000EA0189012417350720F48D2FE901042F9D
:103A5000182F60E872E0C7010E94001DD60114967D
:103A60008D919C911597C817D907C8F580179107B4
:103A700008F48C01D601ED91FC911197E00FF11F34
:103A8000B08010824D915C91BA016C0F7D1F611561
:103A9000710561F0FB0101900020E9F73197AF015A
:103AA000461B570BC7010E94D01C13C0F701808131
:103AB0009181009711F00E94E233D70111961C9278
:103AC0001E9215961C921E92149713961C921E928B
:103AD0001297D601ED91FC91E00FF11FB082C70162
:103AE000DF91CF911F910F91FF90EF90DF90CF90DA
:103AF000BF9008951F920F920FB60F9211240BB62C
:103B00000F922F933F934F935F936F937F938F9376
:103B10009F93AF93BF93EF93FF938BE799E00E943E
:103B2000AE1BFF91EF91BF91AF919F918F917F91CC
:103B30006F915F914F913F912F910F900BBE0F901E
:103B40000FBE0F901F9018951F920F920FB60F92F5
:103B500011240BB60F922F933F934F935F936F9364
:103B60007F938F939F93AF93BF93EF93FF938BE7D5
:103B700099E00E94401BFF91EF91BF91AF919F91FF
:103B80008F917F916F915F914F913F912F910F9006
:103B90000BBE0F900FBE0F901F9018951F920F92A3
:103BA0000FB60F9211240BB60F922F933F934F93A2
:103BB0005F936F937F938F939F93AF93BF93EF9395
:103BC000FF938CED97E00E94AE1BFF91EF91BF91A8
:103BD000AF919F918F917F916F915F914F913F91A5
:103BE0002F910F900BBE0F900FBE0F901F90189546
:103BF0001F920F920FB60F9211240BB60F922F93B4
:103C00003F934F935F936F937F938F939F93AF9364
:103C1000BF93EF93FF938CED97E00E94401BFF91C1
:103C2000EF91BF91AF919F918F917F916F915F9134
:103C30004F913F912F910F900BBE0F900FBE0F90A1
:103C40001F901895FC0120812EBDDC0131969C014E
:103C5000260F371FE217F30741F051910DB407FE0D
:103C6000FDCF4EB55EBD4D93F5CF61507109FC019E
:103C7000E60FF71F0DB407FEFDCF8EB580830895C4
:103C800028980895289A08951F93CF93DF9300D022
:103C9000CDB7DEB7182F80E591E06B830E94040A50
:103CA0000E94401E126019836B816A8362E070E09B
:103CB000CE0101960E94221E0E94421E0E94FC0913
:103CC0000F900F900F90DF91CF911F9108951F9348
:103CD000CF93DF931F92CDB7DEB7182F80E591E029
:103CE0000E94040A0E94401E812F0E94FD0980E06C
:103CF0000E94FD0989830E94421E0E94FC0989815D
:103D00000F90DF91CF911F910895CF93DF9300D053
:103D10001F92CDB7DEB749835A836B837C8324E03F
:103D200030E0AE014F5F5F4F61E20E9402180F90DA
:103D30000F900F900F90DF91CF9108958F929F92E7
:103D4000AF92BF92CF92DF92EF92FF92CF93DF9329
:103D5000A091A208882311F03A2F01C030E0809191
:103D6000A30890E0880F991F8C5D9D4FC090A80814
:103D7000D090A908E090AA08F090AB0840E050E08D
:103D8000BA01FC01C591D49128812A2323130FC0C5
:103D90004A015B012FEF821A920AA20AB20A4C155D
:103DA0005D056E057F0538F4B501A401EACF342F17
:103DB000252FCB0104C030E020E080E090E0632FAD
:103DC000722FDF91CF91FF90EF90DF90CF90BF9057
:103DD000AF909F908F9008958F929F92AF92BF92D5
:103DE0000F931F93CF93DF93CDB7DEB7A1970FB695
:103DF000F894DEBF0FBECDBF19A2423008F44AE0EE
:103E00008E010F5D1F4F842E912CA12CB12CA5018A
:103E100094010E94EF31E62FB901CA010150110946
:103E2000EA3014F4E05D01C0E95CD801EC93232B87
:103E3000242B252B61F7C8010E94B30EA1960FB663
:103E4000F894DEBF0FBECDBFDF91CF911F910F91D0
:103E5000BF90AF909F908F9008950C94AB184F92A5
:103E60005F926F927F928F929F92AF92BF92CF920A
:103E7000DF92EF92FF926B017C019B01AC010E94EB
:103E80002C33882319F084ED96E01AC046015701BF
:103E9000E894B7F82FEF3FEF4FE75FE7C501B401B4
:103EA0000E942C33811110C02FEF3FEF4FE75FE7E7
:103EB000C501B4010E949237181634F488ED96E0DB
:103EC0000E94B30E7C017FC02FEF3FEF4FE75FE40E
:103ED000C701B6010E94273318161CF48CED96E03A
:103EE000EFCF2FEF3FEF4FE75FECC701B6010E9426
:103EF000923787FDF3CF20E030E0A901C701B6017A
:103F00000E94923787FF09C08DE20E94D7115C01A1
:103F1000F7FAF094F7F8F09402C0A12CB12C2AE043
:103F200037ED43EA5BE3C701B6010E941A322B0169
:103F30003C010E94F8326B017C010E9497379B0183
:103F4000AC01C301B2010E9419322B013C014AE0CD
:103F5000C701B6010E94EC1E7C01EA0CFB1C8EE23C
:103F60000E94D711E80EF91E20E030E040E251E453
:103F7000C301B2010E94F8372B013C010E94F832C4
:103F80004B01A12CB12C4AE0C501B4010E94EC1EEA
:103F9000E80EF91EC501B4010E9497379B01AC01E0
:103FA000C301B2010E94193220E030E040E251E446
:103FB0000E94F8370E94F83280E090E04AE00E94C8
:103FC000EC1EE80EF91E8EE792E00E94B30E8E0DF5
:103FD0009F1DFF90EF90DF90CF90BF90AF909F908C
:103FE0008F907F906F905F904F900895CF92DF9267
:103FF000EF92FF920F931F93CF93DF93CDB7DEB76E
:10400000C054D1400FB6F894DEBF0FBECDBF0E94A2
:1040100080250091A4081091A5082091A608309150
:10402000A7086B017C01C01AD10AE20AF30A40ED2D
:10403000C41647E0D406E104F10418F48091AC08FA
:10404000BCC06093A4087093A5088093A6089093C1
:10405000A70810929F0810929E0810929D08109237
:104060009C0810929B0861E08091A0080E94852422
:104070006AEF70E080E090E00E94462561E0809168
:10408000A0080E94B52460E08091A0080E948524C9
:1040900064E170E080E090E00E944625F89461E0E1
:1040A0008091A0080E9485248BE990E00197F1F7A8
:1040B00062E08091A0080E94B52483E290E001971D
:1040C000F1F780E00E949E1E672B682B692B21F47C
:1040D0001092AC0878943EC081E00E949E1E672B2F
:1040E000682B692BA9F38E010F5F1F4F6E018FEBB9
:1040F000C81A8EEFD80A780180E00E949E1EF70150
:10410000608371838283938381E00E949E1EF70106
:104110006483758386839783F8E0EF0EF11CEC14BB
:10412000FD0451F7789420E030E0F801408151819E
:1041300062817381C480D580E680F7804115510586
:104140006105710529F0C114D104E104F10421F4E1
:104150001092AC0880E031C0F90183E0F595E79555
:104160008A95E1F7E556F74F8081880F4C155D057C
:104170006E057F0508F4816080832F5F3F4F085FE5
:104180001F4F2832310589F620919F0830E0409179
:104190009B0880919C0890E0840F911D40919D08A0
:1041A000840F911D40919E08840F911D9927281717
:1041B000390771F681E08093AC08C05CDE4F0FB622
:1041C000F894DEBF0FBECDBFDF91CF911F910F914D
:1041D000FF90EF90DF90CF90089591E09093420789
:1041E00099E2909364071092430710926507682F35
:1041F00080ED97E00E94ED1681E00E94F20E809122
:1042000041078111FCCF81E08093410780934007F3
:104210009FEF90933F0710923E0710923D078093C7
:104220001C0780911C07826580931C0780911B07E7
:10423000813061F410921B0780911C078093BB00B2
:104240008091BC0083FDF8CF85EC01C085EE8093A2
:10425000BC00809141078130E1F380913E078111DC
:1042600003C080913E0701C081E0ADE1B7E020EBE3
:1042700037E0F9019E2F921B981718F49D919193A6
:10428000F9CF1092AF078093AE07811101C0FFCF25
:1042900080ED97E00E94A1160895CF93DF93EC0183
:1042A000892B41F0FE018491882321F021960E9400
:1042B000D711F8CFDF91CF9108958F929F92AF924F
:1042C000BF92CF92DF92EF92FF920F931F93CF9303
:1042D000DF9300D0CDB7DEB77C01D701ED91FC9123
:1042E0000480F581E02DC7011995059708F47CC07D
:1042F000C7010E94E617813B910579F7C7010E942B
:10430000E6178234910549F7D701ED91FC910280BF
:10431000F381E02D43E050E0BE016F5F7F4FC701A6
:104320001995039709F060C029818A81322F3827B7
:1043300093EF93273B81931357C0F701238390E0BA
:1043400095838483892B09F44CC00190F081E02D82
:104350000680F781E02DC70119954B015C01D7015B
:10436000ED91FC910480F581E02DC7011995F701CD
:10437000448155814817590760F002E310E020E0BE
:1043800030E0B501A401C7010E947D18882339F3EC
:104390002BC087010A5F1F4F0190F081E02D028042
:1043A000F381E02DB801C7011995D70114962D911D
:1043B0003C91159782179307A1F4C7010E94E61755
:1043C000F801D70114962D913C911597200F311FBC
:1043D00090E0E217F30719F041919427FACF981370
:1043E00003C081E0F70182836701F2EFCF1AFEEF8D
:1043F000DF0AD6014D915D916D917C9100ED17E042
:1044000020E030E0C7010E947D188823A9F020E059
:1044100030E040E050E060E0C7010E940218D701A0
:10442000ED91FC910680F781E02DC7011995F60109
:104430006083718382839383D70112968C91129744
:104440008701065F1E4F8823E9F013968C9113971E
:10445000811118C0ED91FC910680F781E02DC70114
:104460001995F8016083718382839383D701129633
:104470001C9280EE96E00E94C50E81E0F701E75F96
:10448000FE4F8083F801408151816281738108E889
:1044900013E120E030E0C7010E947D18882321F05D
:1044A000F701E75FFE4F108287010E5E1E4FD801B5
:1044B0008C91811128C0F7018281882321F18381A9
:1044C000803109F512820480F581E02DEE0DFF1D8B
:1044D0008581811118C020E030E040E050E061E1CA
:1044E000C7010E94021881E0D8018C93D701ED9199
:1044F000FC91B7016A5F7F4F0084F185E02DC70111
:104500001995F80110820F900F900F90DF91CF91C5
:104510001F910F91FF90EF90DF90CF90BF90AF90E1
:104520009F908F9008952F923F924F925F926F923B
:104530007F928F929F92AF92BF92CF92DF92EF9233
:10454000FF920F931F93CF93DF9300D01F92CDB7AD
:10455000DEB73C017C836B832A017901F901A080DD
:10456000B180FB01F181F983F90111821082FB0115
:10457000828181FD02C060E101C060E288EE0E949C
:104580001E16AA829201EB81FC81408160E0C3018A
:104590000E948C25382EF6E08F1316C088EF0E94FB
:1045A00041168295817091E08927EB81FC8192818F
:1045B00080FB91F9928391FD02C060E101C060E24D
:1045C00088EE0E941E16DECF81115CC088EC0E942E
:1045D000411682FF55C080E30E944116282E90E0CC
:1045E000A816B90608F42A80F70180819181822CEF
:1045F000912C9501281B390BC90137FF02C080E0BF
:1046000090E06401881599050CF46C0180E591E057
:104610000E94040A0E94401E88E00E94FD09A60133
:1046200060E070E0C8010E948335C114D10421F01C
:10463000B601C8010E94221E0C0D1D1D0E94421EC3
:104640000E94FC0964E088EC0E941E16F70180813C
:104650009181880E991E91828082F9812F1620F017
:104660008A149B0408F48ECF88EF0E94411682952D
:104670008170EB81FC81928180FB91F9928302C071
:1046800080EF382E832D0F900F900F900F90DF91B9
:10469000CF911F910F91FF90EF90DF90CF90BF903F
:1046A000AF909F908F907F906F905F904F903F90D2
:1046B0002F9008958F929F92BF92CF92DF92EF92A8
:1046C000FF920F931F93CF93DF931F92CDB7DEB767
:1046D0004C01B62E690149830E94E4127C01498194
:1046E000009709F44BC0DC01ED91FC9111973097D4
:1046F00009F446C013969C9180E0891731F020811F
:10470000241729F033968F5FF8CFE0E0F0E0D60170
:10471000ED93FC933097B1F122812695269530E0F8
:104720002031310514F02FE030E081E090E0A0E08E
:10473000B0E004C0880F991FAA1FBB1F2A95D2F7AB
:104740000197F801918380836B2D80EE0E941E16E5
:1047500088ED0E944116682FD70114968C9188230A
:1047600039F0F401EA58FF4F80818260682B01C064
:10477000697F88ED0E941E1680E005C086ED03C0AB
:1047800087ED01C08BED0F90DF91CF911F910F91BD
:10479000FF90EF90DF90CF90BF909F908F90089503
:1047A00081E0089580E0089580E00895089580E014
:1047B000089580E0089580E0089580E0089580E005
:1047C000089590E0FC013197E231F10508F04EC008
:1047D0008827E658FF4F8F4F0C941132809180004C
:1047E0008F7703C0809180008F7D80938000089533
:1047F00080918000877FF9CF84B58F7702C084B520
:104800008F7D84BD08958091B0008F7703C0809123
:10481000B0008F7D8093B0000895809190008F77D5
:1048200007C0809190008F7D03C080919000877FAA
:104830008093900008958091A0008F7707C08091A9
:10484000A0008F7D03C08091A000877F8093A0008F
:104850000895809120018F7707C0809120018F7D7E
:1048600003C080912001877F8093200108953FB786
:10487000F8948091A80B9091A90BA091AA0BB091EC
:10488000AB0B26B5A89B05C02F3F19F00196A11DC3
:10489000B11D3FBFBA2FA92F982F8827820F911DD6
:1048A000A11DB11DBC01CD0142E0660F771F881F1D
:1048B000991F4A95D1F70895CF93DF93282F30E0C1
:1048C000F901EC51FD4F8491F901EC57FD4FD49162
:1048D000F901E25CFD4FC491CC2391F081110E945B
:1048E000E123EC2FF0E0EE0FFF1FEC5DFD4FA591F3
:1048F000B491EC91ED2381E090E021F480E002C0DE
:1049000080E090E0DF91CF9108951F93CF93DF93E4
:10491000282F30E0F901EC51FD4F8491F901EC575B
:10492000FD4FD491F901E25CFD4FC491CC23C9F055
:10493000162F81110E94E123EC2FF0E0EE0FFF1FF4
:10494000E653FD4FA591B4918FB7F894111105C0AE
:104950009C91ED2FE095E92302C0EC91ED2BEC93B7
:104960008FBFDF91CF911F910895CF93DF9390E098
:10497000FC01EC57FD4F2491FC01E25CFD4F84915A
:10498000882361F190E0880F991FFC01E65DFC4FE0
:10499000C591D491FC01E653FD4FA591B4916111ED
:1049A00009C09FB7F8948881209582238883EC9171
:1049B0002E230BC0623061F49FB7F8943881822FA8
:1049C000809583238883EC912E2B2C939FBF06C068
:1049D0008FB7F894E8812E2B28838FBFDF91CF917A
:1049E0000895CF93CFB7F8948091AC0B811127C075
:1049F000E3E7F2E08491E9EBF2E09491E82FF0E054
:104A0000EE0FFF1FE65DFC4FA591B491EC91E923F9
:104A100021F461E085E30E94852461E085E30E9442
:104A2000B5248CB580618CBD8CB580648CBD61E093
:104A300084E30E94B52461E083E30E94B524809161
:104A4000AC0B8F5F8093AC0BCFBFCF9108958633B3
:104A500008F0865390917B00282F2870977F922B27
:104A600090937B008770806480937C0080917A00B3
:104A7000806480937A0080917A0086FDFCCF8091DB
:104A800078002091790090E0922B08958F929F9268
:104A9000AF92BF92CF92DF92EF92FF926B017C01B7
:104AA0000E9437244B015C01C114D104E104F104DC
:104AB000F1F00E943724DC01CB0188199909AA0979
:104AC000BB09883E9340A105B10570F321E0C21AED
:104AD000D108E108F10888EE880E83E0981EA11C39
:104AE000B11CC114D104E104F10419F7DDCFFF902A
:104AF000EF90DF90CF90BF90AF909F908F900895F0
:104B00002FB7F8946091A40B7091A50B8091A60B20
:104B10009091A70B2FBF08958F929F92AF92BF9253
:104B2000CF92DF92EF92FF920F931F93CF93DF9379
:104B3000862E942E59010E9480256B017C0128E865
:104B4000C20E23E1D21EE11CF11C00E010E0D0E017
:104B5000C0E098280E948025DC01CB018C199D09BA
:104B6000AE09BF09B7FF2DC0692D80EF0E941E1648
:104B70000E948025DC01CB018C199D09AE09BF097B
:104B8000B7FF09C088EC0E94411687FFF1CF60E8AB
:104B900088EC0E941E1688EF0E944116C82FCF7025
:104BA000C43019F0CE3051F00CC00F5F1F4FA1146C
:104BB000B10481F20A151B0569F603C0DF5FD3302B
:104BC00049F68C2FDF91CF911F910F91FF90EF90BD
:104BD000DF90CF90BF90AF909F908F9008952F92CD
:104BE0003F924F925F926F927F928F929F92AF927D
:104BF000BF92CF92DF92EF92FF920F931F93CF93CA
:104C0000DF9300D01F921F92CDB7DEB77D836C83F8
:104C10005A016901FB0121808FEF820D803408F079
:104C200075C00E9480252B013C01F8E84F0EF3E18E
:104C30005F1E611C711CEC81FD81828180FD02C0C0
:104C400060E401C060E888EE0E941E1620E0312C6E
:104C5000C114D10409F44AC076012C143D0408F4AF
:104C60007101EA82A8016E2D80E10E94F9156E2D76
:104C700088E30E941E16EC81FD816081606280EFF6
:104C80000E941E1688EC0E94411687FFFBCF60E849
:104C900088EC0E941E1688EF0E944116282F2F7064
:104CA000812C912C1982222361F02B830E94802574
:104CB000DC01CB0184199509A609B7092B81B7FD41
:104CC00005C0CE18DF080E0D1F1DC2CF263001F122
:104CD0002E3009F456C0243049F4FFEF8F1A9F0A92
:104CE000A114B10459F18A149B0441F588EF2B8378
:104CF0000E94411685FB882780F9EC81FD81928115
:104D000080FB90F992832B81822F41C08AED3FC0B6
:104D100088EF0E94411685FB882780F991E089275A
:104D2000EC81FD81928180FB90F9928390FD02C01D
:104D300060E401C060E888EE0E941E1660E088E32F
:104D40000E941E16F801608180E10E941E166A8191
:104D500088E30E941E16EC81FD816081606280EF15
:104D60000E941E1688EC0E94411687FFFBCF60E868
:104D700088EC0E941E1688EF0E944116282F2F7083
:104D800092CF89818F5F89838330C1F6AFCF0F9037
:104D90000F900F900F900F90DF91CF911F910F9177
:104DA000FF90EF90DF90CF90BF90AF909F908F904B
:104DB0007F906F905F904F903F902F9008951F923B
:104DC0000F920FB60F9211242F933F938F939F93BF
:104DD000AF93BF938091A40B9091A50BA091A60BCC
:104DE000B091A70B3091A30B23E0230F2D3720F4B4
:104DF0000196A11DB11D05C026E8230F0296A11D35
:104E0000B11D2093A30B8093A40B9093A50BA093AB
:104E1000A60BB093A70B8091A80B9091A90BA09122
:104E2000AA0BB091AB0B0196A11DB11D8093A80BED
:104E30009093A90BA093AA0BB093AB0BBF91AF912A
:104E40009F918F913F912F910F900FBE0F901F90C8
:104E50001895CF93DF93CDB7DEB7CA58D1090FB6F7
:104E6000F894DEBF0FBECDBF789484B5826084BD58
:104E700084B5816084BD85B5826085BD85B581605E
:104E800085BD80916E00816080936E0010928100DC
:104E90008091810082608093810080918100816097
:104EA0008093810080918000816080938000809158
:104EB000B10084608093B1008091B00081608093E4
:104EC000B000809191008260809391008091910068
:104ED0008160809391008091900081608093900028
:104EE0008091A10082608093A1008091A1008160E7
:104EF0008093A1008091A00081608093A0008091A8
:104F00002101826080932101809121018160809341
:104F100021018091200181608093200180917A009D
:104F2000846080937A0080917A00826080937A0016
:104F300080917A00816080937A0080917A00806805
:104F400080937A001092C100E091EC07F091ED0798
:104F500082E08083E091E807F091E9071082E09118
:104F6000EA07F091EB078FEC80831092F407E09151
:104F7000F007F091F10786E08083E091EE07F09171
:104F8000EF07808180618083E091EE07F091EF0769
:104F9000808188608083E091EE07F091EF07808147
:104FA00080688083E091EE07F091EF0780818F7D2C
:104FB00080838EE792E00E94B30E81E892E00E9427
:104FC000C70E8EE992E00E94C70E81E892E00E942F
:104FD000C70E8CED97E00E94161C61E080917A0864
:104FE0000E94B52461E080917B080E94B52410E006
:104FF00080917C08181740F420E040E060E0812FA9
:105000000E942A0E1F5FF4CF22E340E060E080E0C0
:105010000E942A0EE0912B0BF0912C0BA089B189F4
:1050200082E08C93A485B5851C92A685B78588E01F
:105030008C93108EA489B58986E08C93A289B3895C
:105040008C9180618C93A289B3898C9188608C93B8
:10505000A289B3898C9180688C930288F389E02DB2
:1050600080818F7D808360ED77E080E090E00E941A
:1050700046258BEB92E00E94C70E0E94F12461E06E
:1050800085E00E94852461E086E00E9485248EEC04
:1050900092E00E94C70E0E946411DC01CB018F7068
:1050A0009927AA27BB270297A105B10509F06BC074
:1050B00080E090E4ACE9B5E48093D3089093D40801
:1050C000A093D508B093D6088091BA08811105C085
:1050D00081E08093BA080E9446108091BC0881113B
:1050E00005C081E08093BC080E9446108091C508ED
:1050F000882379F11092C5080E9446100091C608D5
:105100001091C70883EB98E00E94D41A85E090E0E4
:105110009093C7088093C6080E94BA0F6B017C0168
:1051200041E050E060E070E0CB010E94A30FB701C6
:10513000A60183E090E00E94690F0E94F91083EBC2
:1051400098E00E94CD1A1093C7080093C6080E94E9
:1051500046108091BB08882321F01092BB080E9462
:1051600046108091C408882329F081E08093C40808
:105170000E9446108091D008882349F01092D008F0
:105180000E94461004C081EE92E00E94C70E82EF9A
:1051900092E00E94C70E1092AF071092AE071092D5
:1051A0004307109265071092410781E08093400702
:1051B00010921B0761E084E10E94852461E085E193
:1051C0000E9485248091B9008E7F8093B9008091E0
:1051D000B9008D7F8093B90088E48093B80085E49E
:1051E0008093BC0085E093E00E94C70E63E080E8F6
:1051F00090E00E944F0F60E081E890E00E944F0F26
:1052000060E086E890E00E944F0F60E080E890E068
:105210000E944F0F8CE393E00E94C70E209A0E94D9
:10522000421E0E94F124209A0E94421E6E9868E15C
:1052300088E80E94441E60E288E70E94441E60E005
:1052400088E70E94441E01E010E00115110509F4F1
:10525000A4C588E60E94671E0F5F1F4F80FFF5CF31
:1052600061EC88ED0E94441E60E680ED0E94441EC1
:1052700064E088EE0E94441E88EE0E94671E82FF52
:10528000FBCF0E94A50B60E288EC0E94441E61E007
:1052900080E80E94441E89E593E00E94C70E68EEF4
:1052A00073E080E090E00E9446250E94F12485E0B2
:1052B0008093D70861E00E94B52460E08091D70810
:1052C0000E94852486E58093DA0881E08093DB08DC
:1052D00060E872E0CE0149960E94001D60E872E02D
:1052E000CE0101961C010E94001D8091DA08909168
:1052F000DB080E94040A60E08091D7080E948524A0
:105300008FE30E94FD0961E08091D7080E94852407
:105310000E94FC096AE070E080E090E00E9446256F
:105320008091DA089091DB080E94040A60E0809185
:10533000D7080E948524ECE3EE2EF12CFBE0CF2E63
:10534000D12C80E00E94FD098B8B1C8A0D8D1E8D57
:105350000F5F1F4FB801CE0149960E94A91C8823F8
:1053600069F0298D3A8D8D8D9E8DBE016D5E7F4FCA
:10537000820F931F0E9493351E8F0D8FC6010197D8
:10538000F1F791E0E91AF108E1F661E08091D708C0
:105390000E9485240E94FC09C1010E94FB1C60E858
:1053A00072E0CE0143960E94001D6AE773E0C101DE
:1053B0000E94001DAD8CBE8CA114B10409F4EDC097
:1053C0006D807E806114710409F4E7C0EF88F88C69
:1053D000E618F708098D1A8DE114F104A9F4698122
:1053E0007A81C8010E94A8358C01892B09F4D5C0A7
:1053F0006B897C894F89588DC8010E9468358F89D7
:10540000988D080F191FEBCFF7FE02C0680105C089
:1054100089809A806501C8012DC069817A81C601A1
:105420000E94A8354C01892B01F15401AC18BD082C
:10543000A501B601C8010E9468350A0D1B1D6B89C4
:105440007C894F89588DC8010E9468358F89988D55
:10545000080F191FCD80DE80C80CD91C8D8D9E8D44
:105460008E0D9F1D9E8F8D8FD8CFB601C8010E94D3
:10547000933593C0B4010E94A835009729F0860D9A
:10548000971DCE0CDF1CF6CFCA14DB0409F485C0CF
:105490008B8D9C8D8C159D0568F4B6016F5F7F4FD9
:1054A000C8010E947A34009709F477C09A8F898FD7
:1054B000DC8ECB8E0D8D1E8D0150110917FD6DC038
:1054C0004D805E804114510409F467C0CD8CDE8CA0
:1054D000C114D10409F461C0C414D50408F45DC03A
:1054E0000C151D0518F0860101501109A98CBA8C04
:1054F00069807A80C50188248A94982CA501400F80
:10550000511F48175907C8F0B301C757DF4F4883E9
:10551000C958D040C657DF4F5883CA58D0400E9460
:10552000A835C757DF4F4881C958D040C657DF4F0D
:105530005881CA58D040009739F597FC2EC0480CC6
:10554000591CC501840D951DA60144195509BC01BE
:105550008E0D9F1D0E9471358D8D9E8D8E0D9F1D10
:105560009E8F8D8F298D3A8DF901E80FF91F1082DA
:10557000898D9A8D6B897C894F89588D880D991DED
:105580000E946835840198CF9C012A193B090217B3
:10559000130708F049010196B4CFC1010E94FB1C1A
:1055A000CE0143960E94FB1CE98CFA8CE114F104B5
:1055B000E1F10D8D1E8D01151105B9F15701650140
:1055C000AFEFAA1ABA0AF6018081082E000C990BD7
:1055D0000E947137892B99F7015011090E0D1F1D7B
:1055E000D8018C91082E000C990B0E947137892BE1
:1055F00079F4A8014F5F5F4F4C195D095E8F4D8FA5
:10560000EC14FD0458F4B601C7010E94683506C0C9
:105610000C151D0570F301501109E2CFE98DFA8DCB
:105620008D8D9E8DE80FF91F10822AE130E048E150
:1056300050E0BE01675E7F4FC1010E94151D898148
:105640009A81009719F00E94C63503C060E070E0AF
:10565000CB017093D9086093D808C1010E94FB1C4C
:105660008091D8089091D908823191054CF490939B
:10567000DD088093DC081092DF081092DE084BC032
:1056800083E690E09093DD088093DC088091DA084F
:105690009091DB080E94040A60E08091D7080E9484
:1056A000852482E10E94FD0961E08091D7080E9473
:1056B00085240E94FC096AE070E080E090E00E948E
:1056C00046258091DA089091DB080E94040A60E088
:1056D0008091D7080E94852480E00E94FD09082F50
:1056E0008BE090E00197F1F780E00E94FD09182F10
:1056F00061E08091D7080E9485240E94FC09802FD8
:1057000090E09093DD088093DC08812F90E09093E7
:10571000DF088093DE08CE0149960E94FB1C809131
:10572000DA089091DB080E94040A60E08091D708B3
:105730000E94852483E00E94FD0961E08091D708E2
:105740000E9485240E94FC096AE070E080E090E0FD
:105750000E9446258091DA089091DB080E94040A95
:1057600060E08091D7080E94852480E00E94FD09B6
:1057700061E08091D7080E9485240E94FC0960E4C2
:105780007FE180E090E00E9446250E94D50E8111C5
:1057900004C08CE793E00E94C70ECE014F960E9492
:1057A000D50B8AE6FE017F96A1E3BBE001900D9246
:1057B0008A95E1F70E94802560939B0B70939C0B68
:1057C00080939D0B90939E0B8CE993E00E94C70EF3
:1057D00060E084E40E94B52460E082E40E94B52485
:1057E00060E087E10E94B5248CED97E00E94161CD2
:1057F0008CEA93E00E94C70E10E988E19AE00E94CB
:105800005D21C0909308D0909408E0909508F090A6
:10581000960820E030E0A901C701B6010E94923746
:10582000882359F0A701960160E070E080E89FE3CB
:105830000E9486324B015C0106C0812C912C60ECE9
:10584000A62E6FE7B62E0E9480256B017C01809109
:105850002D0B90912E0BA0912F0BB091300B2601A8
:105860003701481A590A6A0A7B0A20E030E04AE701
:1058700054E4C501B4010E94F8370E94F83246167C
:1058800057066806790608F460C0C0922D0BD092C6
:105890002E0BE0922F0BF092300B87E10E945C24DC
:1058A00020918D0830918E082115310511F16091FC
:1058B00091087091920840918F0850919008641758
:1058C000750720F01092920810929108E0919108CB
:1058D000F0919208EE0FFF1FE20FF31F9183808378
:1058E00080919108909192080196909392088093EC
:1058F000910884E40E94272520917F083091800838
:105900002115310511F1609183087091840840914F
:105910008108509182086417750720F0109284085E
:1059200010928308E0918308F0918408EE0FFF1F26
:10593000E20FF31F91838083809183089091840804
:10594000019690938408809383088091210B20E036
:10595000882319F04EE160E002C040E06EE180E093
:105960000E942A0E0E948025C0909B0BD0909C0B19
:10597000E0909D0BF0909E0BDC01CB018C199D09F2
:10598000AE09BF0989389341A105B105B8F00E945D
:10599000802560939B0B70939C0B80939D0B909341
:1059A0009E0BCE014F960E94D50BFE017F96A1E380
:1059B000BBE08AE601900D928A95E1F766990DC0E9
:1059C00088EC0E94411685FF04C00E94A50B60E28E
:1059D00001C060E088EC0E941E168091660781304D
:1059E00041F058F0823091F0833051F5FF24F39468
:1059F0000EC0F3E1F093790823C080917908807F8D
:105A00008031F1F021E1209379081AC0F12C8091C6
:105A10007908807F8031A9F40E948025DC01CB01C8
:105A200088539F4FAF4FBF4F8093F3069093F40678
:105A3000A093F506B093F60680E28093790801C042
:105A4000F12C3AE5632E39E0732E6301D6018D9176
:105A50009D916D01009739F0DC01ED91FC9106807C
:105A6000F781E02D1995BAE7CB16B9E0DB0671F79F
:105A700080917908803409F446C050F4803231F1C5
:105A80008033C9F1813109F07CC110927A090AC0D2
:105A9000813509F461C0803809F473C0803509F09C
:105AA00070C142C0F301819191913F01009739F09B
:105AB000DC01ED91FC910480F581E02D1995BAE7A8
:105AC0006B16B9E07B0671F782E11AC00E9480254F
:105AD000C090F306D090F406E090F506F090F6063C
